:100000000C9434000C9451000C9451000C94510049
:100010000C9451000C9451000C9451000C9451001C
:100020000C9451000C9451000C9451000C9451000C
:100030000C9451000C9451000C9451000C945100FC
:100040000C9451000C9451000C9451000C945100EC
:100050000C9451000C9451000C9451000C945100DC
:100060000C9451000C94510011241FBECFEFD8E026
:10007000DEBFCDBF11E0A0E0B1E0E6E7F9E002C0ED
:1000800005900D92AE30B107D9F721E0AEE0B1E0B6
:1000900001C01D92AB32B207E1F70E94FE000C9442
:1000A000B9040C940000EEE7F0E0108280818360D8
:1000B000808380E480937C00EAE7F0E01082808116
:1000C000876080838081806880830895ECE7F0E01A
:1000D0009081907F8F70892B8083EAE7F0E08081A8
:1000E0008064808380917A0086FDFCCF80917800C7
:1000F0009091790008958BB188608BB985E38A95DA
:10010000F1F700008BB1877F8BB98FE99FE00197F2
:10011000F1F700C0000008959BB19F709BB99BB19F
:1001200040E1849F90011124292B2BB995B1907F38
:1001300095B995B182958F70892B85B90E947B0006
:1001400008959BB19B7F9BB90E948C002FEF89EF94
:1001500090E0215080409040E1F700C000000895F9
:100160009BB194609BB90E948C002FEF89EF90E0C7
:10017000215080409040E1F700C00000089581E0E8
:100180000E94A1002FEF86E791E02150804090402F
:10019000E1F700C0000008958AB18C608AB98AB185
:1001A000806F8AB984B18F6084B92FEF87E893E1BB
:1001B000215080409040E1F700C0000088E30E9499
:1001C000A1008CE00E94A10086E00E94A1000E9494
:1001D000BF000895811180E4860F80680E94A1000D
:1001E0000895CF93DF93EC0103C021960E94B000E5
:1001F00088818111FACFDF91CF9108950E94CC00C0
:100200000E94530080E00E94660090931901809341
:1002100018012FEF80E792E0215080409040E1F7F5
:1002200000C000008091180190911901A0E0B0E099
:10023000880F991FAA1FBB1F880F991FAA1FBB1FDA
:100240008093140190931501A0931601B0931701A8
:1002500081E00E94660090931301809312012FEFBA
:1002600080E792E0215080409040E1F700C000001C
:100270008091120190911301A0E0B0E0880F991FC6
:10028000AA1FBB1F880F991FAA1FBB1F80930E01B7
:1002900090930F01A0931001B09311010E94BF0031
:1002A00060E080E00E94EA0080E091E00E94F100BE
:1002B00060E081E00E94EA00C0901401D090150136
:1002C000E0901601F0901701C701B60124E630E076
:1002D00040E050E00E949F019F938F937F936F9324
:1002E000C701B60128EE33E040E050E00E949F01D4
:1002F0005F934F933F932F9383E091E09F938F936E
:100300001F9281E18F938AE191E09F938F930E94E6
:10031000C1018AE191E00E94F1002FEF85EA9EE0A1
:10032000215080409040E1F700C000008DB79EB79B
:100330000E960FB6F8949EBF0FBE8DBF63CFA1E29D
:100340001A2EAA1BBB1BFD010DC0AA1FBB1FEE1F4F
:10035000FF1FA217B307E407F50720F0A21BB30B9A
:10036000E40BF50B661F771F881F991F1A9469F716
:1003700060957095809590959B01AC01BD01CF0172
:100380000895AEE0B0E0E7ECF1E00C9490040D8944
:100390001E898F89988D26E02C831A83098397FF05
:1003A00002C080E090E801979E838D83AE01455E98
:1003B0005F4F698D7A8DCE0101960E94F1014D81CA
:1003C0005E8157FD0AC02F813885421753070CF410
:1003D0009A01F801E20FF31F10822E96E4E00C94CC
:1003E000AC04ABE0B0E0E7EFF1E00C9482046C0108
:1003F0007B018A01FC0117821682838181FFCCC1B7
:10040000CE0101963C01F6019381F70193FD8591A0
:1004100093FF81917F01882309F4BAC1853239F4B1
:1004200093FD859193FF81917F01853229F4B60177
:1004300090E00E94E803E7CF912C212C312CFFE1C2
:10044000F315D8F08B3279F038F4803279F08332BA
:10045000A1F4232D20611DC08D3261F0803369F439
:10046000232D216016C0832D8260382EE32DE46099
:100470003E2E2AC0F32DF8601DC037FC2DC020EDA4
:10048000280F2A3040F08E32B9F436FC81C1232D7A
:100490002064322E19C036FE06C08AE0989E200DD8
:1004A0001124922E11C0EAE02E9E200D1124222E3E
:1004B000F32DF0623F2E08C08C3621F4832D806826
:1004C000382E02C0883641F4F70193FD859193FFE1
:1004D00081917F018111B3CF982F9F7D95549330E7
:1004E00028F40C5F1F4F9FE399830DC0833631F0D2
:1004F000833771F0833509F059C021C0F80180813C
:1005000089830E5F1F4F88248394912C530113C05D
:100510002801F2E04F0E511CF801A080B18036FE98
:1005200003C0692D70E002C06FEF7FEFC5010E942C
:10053000DD034C018201F32DFF773F2E16C0280109
:1005400022E0420E511CF801A080B18036FE03C0AB
:10055000692D70E002C06FEF7FEFC5010E94D203EA
:100560004C01F32DF0683F2E820133FC1BC0822D1D
:1005700090E088169906B0F4B60180E290E00E94FF
:10058000E8032A94F4CFF50137FC859137FE819179
:100590005F01B60190E00E94E80321102A9421E057
:1005A000821A91088114910471F7E8C0843611F021
:1005B000893641F5F80137FE07C06081718182817B
:1005C00093810C5F1F4F08C060817181072E000C62
:1005D000880B990B0E5F1F4FF32DFF763F2E97FF71
:1005E00009C090958095709561957F4F8F4F9F4F73
:1005F000F0683F2E2AE030E0A3010E942404882EF8
:10060000861845C0853731F4232D2F7EB22E2AE07F
:1006100030E025C0932D997FB92E8F36C1F018F4A4
:10062000883579F0B5C0803719F0883721F0B0C02F
:10063000E92FE061BE2EB4FE0DC0FB2DF460BF2E8D
:1006400009C034FE0AC0292F2660B22E06C028E059
:1006500030E005C020E130E002C020E132E0F801E6
:10066000B7FE07C060817181828193810C5F1F4F4B
:1006700006C06081718180E090E00E5F1F4FA30192
:100680000E942404882E8618FB2DFF773F2E36FE0D
:100690000DC0232D2E7FA22E891458F434FE0BC0DA
:1006A00032FC09C0832D8E7EA82E05C0B82CA32C49
:1006B00003C0B82C01C0B92CA4FE0FC0FE01E80D88
:1006C000F11D8081803321F49A2D997EA92E09C0D5
:1006D000A2FE06C0B394B39404C08A2D867809F0B4
:1006E000B394A3FC11C0A0FE06C0B21488F4280C79
:1006F000922C9B180EC0B21460F4B60180E290E018
:100700000E94E803B394F7CFB21418F42B1802C078
:10071000982C212CA4FE10C0B60180E390E00E942A
:10072000E803A2FE17C0A1FC03C088E790E002C066
:1007300088E590E0B6010CC08A2D867859F0A1FEBC
:1007400002C08BE201C080E2A7FC8DE2B60190E01E
:100750000E94E803891438F4B60180E390E00E9417
:10076000E8039A94F7CF8A94F301E80DF11D808194
:10077000B60190E00E94E8038110F5CF222009F431
:1007800042CEB60180E290E00E94E8032A94F6CFC0
:10079000F6018681978102C08FEF9FEF2B96E2E1F1
:1007A0000C949E04FC010590615070400110D8F734
:1007B000809590958E0F9F1F0895FC0161507040A9
:1007C00001900110D8F7809590958E0F9F1F089586
:1007D0000F931F93CF93DF93FB01238121FD03C070
:1007E0008FEF9FEF2CC022FF16C0468157812481D6
:1007F00035814217530744F4A081B1819D012F5FD9
:100800003F4F318320838C93268137812F5F3F4F69
:100810003783268314C08B01EC01FB010084F18532
:10082000E02D0995892BE1F6D80116968D919C91C2
:100830001797019617969C938E931697CE01DF918A
:10084000CF911F910F910895FA01AA27283051F1F5
:10085000203181F1E8946F936E7F6E5F7F4F8F4FF1
:100860009F4FAF4FB1E03ED0B4E03CD0670F781F50
:10087000891F9A1FA11D680F791F8A1F911DA11D35
:100880006A0F711D811D911DA11D20D009F468946E
:100890003F912AE0269F11243019305D3193DEF616
:1008A000CF010895462F4770405D4193B3E00FD0CC
:1008B000C9F7F6CF462F4F70405D4A3318F0495DB7
:1008C00031FD4052419302D0A9F7EACFB4E0A6959A
:1008D0009795879577956795BA95C9F700976105BC
:1008E000710508959B01AC010A2E06945795479512
:1008F00037952795BA95C9F7620F731F841F951F07
:10090000A01D08952F923F924F925F926F927F9217
:100910008F929F92AF92BF92CF92DF92EF92FF920F
:100920000F931F93CF93DF93CDB7DEB7CA1BDB0BBB
:100930000FB6F894DEBF0FBECDBF09942A88398860
:1009400048885F846E847D848C849B84AA84B98467
:10095000C884DF80EE80FD800C811B81AA81B98173
:10096000CE0FD11D0FB6F894DEBF0FBECDBFED0187
:060970000895F894FFCF8A
:0E097600503100256C752E2530336C75000055
:00000001FF
