:100000000C9434000C9451000C9451000C94510049
:100010000C9451000C9451000C9451000C9451001C
:100020000C9451000C9451000C9451000C9451000C
:100030000C9451000C9451000C9451000C945100FC
:100040000C9451000C9451000C9451000C945100EC
:100050000C9451000C9451000C9451000C945100DC
:100060000C9451000C94510011241FBECFEFD8E026
:10007000DEBFCDBF11E0A0E0B1E0E8E4FAE002C0ED
:1000800005900D92A633B107D9F721E0A6E3B1E0C0
:1000900001C01D92AF38B207E1F70E94F5000C9441
:1000A00022050C940000EEE7F0E01082808183606E
:1000B000808380E480937C00EAE7F0E01082808116
:1000C000876080838081806880830895ECE7F0E01A
:1000D0009081907F8F70892B8083EAE7F0E08081A8
:1000E0008064808380917A0086FDFCCF80917800C7
:1000F0009091790008958BB188608BB985E08A95DD
:10010000F1F700008BB1877F8BB98FE891E0019701
:10011000F1F700C0000008959BB19F709BB99BB19F
:1001200040E1849F90011124292B2BB995B1907F38
:1001300095B995B182958F70892B85B90E947B0006
:1001400008959BB19B7F9BB90E948C008FE39FE138
:100150000197F1F700C0000008959BB194609BB92E
:100160000E948C008FE39FE10197F1F700C000002F
:10017000089581E00E94A1008FED9EE20197F1F7C2
:1001800000C0000008958AB18C608AB98AB1806F7E
:100190008AB984B18F6084B92FEF83EF91E0215049
:1001A00080409040E1F700C0000088E30E94A10079
:1001B0008CE00E94A10086E00E94A1000E94B9008C
:1001C0000895811180E4860F80680E94A10008953F
:1001D000CF93DF93EC0103C021960E94AD0088818C
:1001E0008111FACFDF91CF9108950E94C3000E9440
:1001F000530060E875E280E090E00E94D20180E068
:100200000E94660090934301809342018FE39FE137
:100210000197F1F700C0000081E00E946600909312
:100220003901809338016091420170914301CB0103
:10023000A0E0B0E0BC01CD01660F771F881F991FB9
:10024000660F771F881F991F60933E0170933F01CF
:10025000809340019093410128EE33E040E050E06C
:100260000E94080230933D0120933C012AE030E0D7
:1002700040E050E00E94080230933B0120933A0195
:100280000E94FD018823C9F00E940102809344016D
:100290008B3251F480913601909137010196909301
:1002A00037018093360109C0809136019091370162
:1002B00001979093370180933601809137018F9396
:1002C000809136018F93809139018F93809138010D
:1002D0008F93809143018F93809142018F9380E0AF
:1002E00091E09F938F931F9288E28F9387E691E02E
:1002F0009F938F930E942A0287E691E00E94F0016B
:1003000080E1E4E1F1E0A6E5B1E001900D928A958B
:10031000E1F7809137018F93809136018F9380911F
:1003200039018F93809138018F9380913B018F9396
:1003300080913A018F9380913D018F9380913C0190
:100340008F9384E291E09F938F931F9281E18F932B
:1003500085E491E09F938F930E942A020E94B90046
:1003600060E080E00E94E10086E591E00E94E80004
:1003700060E081E00E94E10085E491E00E94E800F5
:100380009FEF26E781E0915020408040E1F700C0D8
:1003900000008DB79EB74A960FB6F8949EBF0FBE69
:1003A0008DBF2DCF9B01AC0160E472E48FE090E043
:1003B0000E940802215031093093C5002093C400E7
:1003C0001092C00088E18093C10086E08093C20053
:1003D00008959091C00095FFFCCF8093C6000895CA
:1003E000CF93DF93EC0103C021960E94E90188813D
:1003F0008111FACFDF91CF9108958091C00080786C
:1004000008950E94FD018823E1F38091C6000895BC
:10041000A1E21A2EAA1BBB1BFD010DC0AA1FBB1F08
:10042000EE1FFF1FA217B307E407F50720F0A21B7A
:10043000B30BE40BF50B661F771F881F991F1A94E7
:1004400069F760957095809590959B01AC01BD0111
:10045000CF010895AEE0B0E0E0E3F2E00C94F904DF
:100460000D891E898F89988D26E02C831A83098334
:1004700097FF02C080E090E801979E838D83AE01D4
:10048000455E5F4F698D7A8DCE0101960E945A02BA
:100490004D815E8157FD0AC02F8138854217530771
:1004A0000CF49A01F801E20FF31F10822E96E4E09B
:1004B0000C941505ABE0B0E0E0E6F2E00C94EB0440
:1004C0006C017B018A01FC0117821682838181FF06
:1004D000CCC1CE0101963C01F6019381F70193FD59
:1004E000859193FF81917F01882309F4BAC18532F8
:1004F00039F493FD859193FF81917F01853229F431
:10050000B60190E00E945104E7CF912C212C312CB0
:10051000FFE1F315D8F08B3279F038F4803279F0BE
:100520008332A1F4232D20611DC08D3261F0803310
:1005300069F4232D216016C0832D8260382EE32DAF
:10054000E4603E2E2AC0F32DF8601DC037FC2DC09C
:1005500020ED280F2A3040F08E32B9F436FC81C1EC
:10056000232D2064322E19C036FE06C08AE0989EE4
:10057000200D1124922E11C0EAE02E9E200D112490
:10058000222EF32DF0623F2E08C08C3621F4832DED
:100590008068382E02C0883641F4F70193FD8591BA
:1005A00093FF81917F018111B3CF982F9F7D955447
:1005B000933028F40C5F1F4F9FE399830DC083365F
:1005C00031F0833771F0833509F059C021C0F8014B
:1005D000808189830E5F1F4F88248394912C53015F
:1005E00013C02801F2E04F0E511CF801A080B18029
:1005F00036FE03C0692D70E002C06FEF7FEFC501CA
:100600000E9446044C018201F32DFF773F2E16C055
:10061000280122E0420E511CF801A080B18036FE74
:1006200003C0692D70E002C06FEF7FEFC5010E942B
:100630003B044C01F32DF0683F2E820133FC1BC0BC
:10064000822D90E088169906B0F4B60180E290E021
:100650000E9451042A94F4CFF50137FC859137FEAE
:1006600081915F01B60190E00E94510421102A940B
:1006700021E0821A91088114910471F7E8C0843650
:1006800011F0893641F5F80137FE07C060817181AC
:10069000828193810C5F1F4F08C060817181072E9A
:1006A000000C880B990B0E5F1F4FF32DFF763F2E2A
:1006B00097FF09C090958095709561957F4F8F4FFA
:1006C0009F4FF0683F2E2AE030E0A3010E948D0486
:1006D000882E861845C0853731F4232D2F7EB22E03
:1006E0002AE030E025C0932D997FB92E8F36C1F0D6
:1006F00018F4883579F0B5C0803719F0883721F0C3
:10070000B0C0E92FE061BE2EB4FE0DC0FB2DF46039
:10071000BF2E09C034FE0AC0292F2660B22E06C0A3
:1007200028E030E005C020E130E002C020E132E006
:10073000F801B7FE07C060817181828193810C5FEF
:100740001F4F06C06081718180E090E00E5F1F4FF7
:10075000A3010E948D04882E8618FB2DFF773F2E63
:1007600036FE0DC0232D2E7FA22E891458F434FEA0
:100770000BC032FC09C0832D8E7EA82E05C0B82C7C
:10078000A32C03C0B82C01C0B92CA4FE0FC0FE01DD
:10079000E80DF11D8081803321F49A2D997EA92ED8
:1007A00009C0A2FE06C0B394B39404C08A2D867813
:1007B00009F0B394A3FC11C0A0FE06C0B21488F4E3
:1007C000280C922C9B180EC0B21460F4B60180E283
:1007D00090E00E945104B394F7CFB21418F42B1890
:1007E00002C0982C212CA4FE10C0B60180E390E03A
:1007F0000E945104A2FE17C0A1FC03C088E790E04C
:1008000002C088E590E0B6010CC08A2D867859F0C8
:10081000A1FE02C08BE201C080E2A7FC8DE2B6011E
:1008200090E00E945104891438F4B60180E390E00E
:100830000E9451049A94F7CF8A94F301E80DF11DB8
:100840008081B60190E00E9451048110F5CF2220F2
:1008500009F442CEB60180E290E00E9451042A944D
:10086000F6CFF6018681978102C08FEF9FEF2B961E
:10087000E2E10C940705FC01059061507040011005
:10088000D8F7809590958E0F9F1F0895FC016150B9
:10089000704001900110D8F7809590958E0F9F1FA2
:1008A00008950F931F93CF93DF93FB01238121FDC5
:1008B00003C08FEF9FEF2CC022FF16C046815781E7
:1008C000248135814217530744F4A081B1819D01F1
:1008D0002F5F3F4F318320838C93268137812F5F99
:1008E0003F4F3783268314C08B01EC01FB0100844A
:1008F000F185E02D0995892BE1F6D80116968D91A9
:100900009C911797019617969C938E931697CE01FC
:10091000DF91CF911F910F910895FA01AA272830F6
:1009200051F1203181F1E8946F936E7F6E5F7F4FBC
:100930008F4F9F4FAF4FB1E03ED0B4E03CD0670F38
:10094000781F891F9A1FA11D680F791F8A1F911D8B
:10095000A11D6A0F711D811D911DA11D20D009F4DB
:1009600068943F912AE0269F11243019305D31931D
:10097000DEF6CF010895462F4770405D4193B3E006
:100980000FD0C9F7F6CF462F4F70405D4A3318F0AD
:10099000495D31FD4052419302D0A9F7EACFB4E05E
:1009A000A6959795879577956795BA95C9F7009716
:1009B0006105710508959B01AC010A2E06945795B7
:1009C000479537952795BA95C9F7620F731F841F0E
:1009D000951FA01D08952F923F924F925F926F92A4
:1009E0007F928F929F92AF92BF92CF92DF92EF92BF
:1009F000FF920F931F93CF93DF93CDB7DEB7CA1B40
:100A0000DB0B0FB6F894DEBF0FBECDBF09942A886A
:100A1000398848885F846E847D848C849B84AA8412
:100A2000B984C884DF80EE80FD800C811B81AA819F
:100A3000B981CE0FD11D0FB6F894DEBF0FBECDBF6A
:080A4000ED010895F894FFCFC9
:100A480050313D2575202050323D257520433D25E8
:100A5800750D0A002053313A20202053323A2020C5
:100A680053333A0025752E253032752025347520EC
:060A780020253575000089
:00000001FF
